:100000000C94990B0C94CA0B0C94CA0B0C94CA0B4D
:100010000C94CA0B0C94CA0B0C94CA0B0C94CA0B0C
:100020000C94CA0B0C94CA0B0C94CA0B0C94CA0BFC
:100030000C94CA0B0C94CA0B0C94CA0B0C94CA0BEC
:100040000C94CA0B0C94C6340C94CA0B0C94CA0BB7
:100050000C94CA0B0C94CA0B0C9457280C94413F77
:100060000C94CA0B0C94DD150C94CA0B0C94CA0B9F
:100070000C94CA0B0C94CA0B0C94CA0B0C94CA0BAC
:100080000C94CA0B0C94CA0B0C94CA0B0C94CA0B9C
:100090000C94CA0B0C94CA0B0C94CA0B0C948B3F97
:1000A0000C94CA0B0C94CA0B0C94CA0B0C94CA0B7C
:1000B0000C94CA0B0C94CA0B0C94CA0B0C94CA0B6C
:1000C0000C94CA0B0C94CA0B0C94CA0B0C94CA0B5C
:1000D0000C94CA0B0C94CA0B0C94CA0B0C94CA0B4C
:1000E0000C94CA0BB528C228E128E428E728EA289E
:1000F000ED28F028F328F628F928FC2806290B3DDE
:100100000E3DFD3C013D073D453D123D163D1C3D6C
:10011000203D243D2A3D2E3D323D453D383D3C3D70
:10012000403D5D3E623E673E713E7B3EF43E853E15
:100130008D3E953E9F3EA93EB33EC23ECC3EF43E30
:10014000D63EE03EEA3E084AD73B3BCE016E84BC39
:10015000BFFDC12F3D6C74319ABD56833DDA3D0021
:10016000C77F11BED9E4BB4C3E916BAAAABE00006A
:1001700000803F05A84CCDB2D44EB93836A9020C48
:1001800050B9918688083CA6AAAA2ABE0000008021
:100190003F004E414E494E495459494E46CDCCCC74
:1001A0003D0AD7233C17B7D13877CC2B329595E64B
:1001B000241FB14F0A000020410000C84200401C2B
:1001C0004620BCBE4CCA1B0E5AAEC59D74434F4D53
:1001D0004D554E49434154494F4E00445259525592
:1001E0004E004552524F525300494E464F00454330
:1001F000484F0047322F473320626164207061729C
:10020000616D65746572730A002569730025696DF7
:1002100020256973002569682025696D202569738B
:1002200000256964202569682025696D202569738A
:100230000025697920256964202569682025696D74
:1002400020256973005072696E742074696D653A77
:10025000200050726F7465637465642050696E0A83
:1002600000EE01E901E201DB01CD016F66660044A9
:10027000454255473A004B494C4C45442E20004DD1
:100280003131332053006F6B003F0A0020573A0092
:100290004649524D574152455F4E414D453A4D6199
:1002A000726C696E20312E312E302D524338202849
:1002B0004769746875622920534F555243455F431F
:1002C0004F44455F55524C3A68747470733A2F2FFF
:1002D0006769746875622E636F6D2F4D61726C690A
:1002E0006E4669726D776172652F4D61726C696ED1
:1002F0002050524F544F434F4C5F56455253494F35
:100300004E3A312E30204D414348494E455F5459B5
:1003100050453A3344205072696E746572204558D6
:100320005452554445525F434F554E543A3120552F
:100330005549443A63656465326132662D343161F2
:10034000322D343734382D396231322D63353563EF
:1003500036326633363766660A0053657474696EE2
:10036000672054726176656C20416363656C6572C9
:100370006174696F6E3A200053657474696E67200A
:100380005265747261637420416363656C65726168
:1003900074696F6E3A200053657474696E672050FB
:1003A00072696E7420416363656C65726174696F14
:1003B0006E3A200053657474696E67205072696EDE
:1003C0007420616E642054726176656C20416363B1
:1003D000656C65726174696F6E3A2000205A002066
:1003E0005900580020204D61783A2000205A002002
:1003F0005900580020204D696E3A20004F6E2000B1
:100400004F666600536F667420656E6473746F7018
:10041000733A200020643A0020693A0020703A00C4
:1004200020646174613A002062797465733A003A1D
:100430002066726F6D3A006932632D7265706C7957
:100440000023646566696E65202044454641554C2D
:10045000545F4B64200023646566696E6520204408
:10046000454641554C545F4B6920002364656669DD
:100470006E65202044454641554C545F4B7020002A
:10048000504944204175746F74756E652066696EBD
:100490006973686564212050757420746865206CE8
:1004A000617374204B702C204B6920616E64204B6B
:1004B0006420636F6E7374616E74732066726F6D07
:1004C0002062656C6F7720696E746F20436F6E6673
:1004D000696775726174696F6E2E680A00504944CD
:1004E000204175746F74756E65206661696C656412
:1004F000212074696D656F75740A0050494420416C
:1005000075746F74756E65206661696C6564212011
:1005100054656D706572617475726520746F6F20BB
:10052000686967680A00204B643A2000204B693AEA
:100530002000204B703A20000A20436C61737369DD
:100540006320504944200A002054753A2000204B73
:10055000753A2000206D61783A2000206D696E3A6E
:10056000200020643A200020626961733A20005420
:100570006F6F206661722066726F6D2072656665AE
:1005800072656E636520706F696E740A000000000A
:10059000000000000000000000454550524F4D2073
:1005A00064697361626C65640A004572726F723AC5
:1005B000004163746976652045787472756465726C
:1005C0003A2000556E6B6E6F776E20636F6D6D61B4
:1005D0006E643A2022005A5F6D6F76655F636F6DBF
:1005E000700A005A5F6D6F76655F636F6D700A0009
:1005F000205A3A0020593A0020583A00656E647338
:10060000746F7073206869743A2000656E71756547
:100610007565696E672022004E6F204C696E6520FB
:100620004E756D62657220776974682063686563D2
:100630006B73756D2C204C617374204C696E653A38
:1006400020004B494C4C45442E20005072696E747A
:1006500065722073746F70706564206475652074B2
:100660006F206572726F72732E20466978207468ED
:1006700065206572726F7220616E642075736520EB
:100680004D39393920746F20726573746172742E1C
:10069000202854656D706572617475726520697388
:1006A0002072657365742E2053657420697420610F
:1006B000667465722072657374617274696E6729FD
:1006C0000A004E6F20436865636B73756D20776910
:1006D0007468206C696E65206E756D6265722C2081
:1006E0004C617374204C696E653A200063686563E1
:1006F0006B73756D206D69736D617463682C204C2C
:10070000617374204C696E653A20004C696E6520F7
:100710004E756D626572206973206E6F74204C6136
:100720007374204C696E65204E756D6265722B3155
:100730002C204C617374204C696E653A20004D3159
:1007400031300020496E76616C696420657874727E
:1007500075646572200000004843000048430000B3
:1007600000430000000000000000000000002040E6
:100770003A00202F0020543A00205A3A0020593ADB
:100780000020436F756E7420583A200020453A00CF
:10079000205A3A0020593A00583A0020204D323071
:1007A000302044300A0020204D32303020440020D8
:1007B00044697361626C65640A0046696C616D65C9
:1007C0006E742073657474696E67733A0020440018
:1007D00020490020204D3330312050005049442022
:1007E00073657474696E67733A0A00205A00205961
:1007F0000020204D323036205800486F6D65206F44
:10080000666673657420286D6D290A0020450020F6
:100810005A00205900205800204200205400202077
:100820004D323035205300416476616E636564203B
:100830007661726961626C65733A20533D4D696EF1
:1008400020666565647261746520286D6D2F73295B
:100850002C20543D4D696E2074726176656C206663
:100860006565647261746520286D6D2F73292C2075
:10087000423D6D696E696D756D207365676D656E5E
:10088000742074696D6520286D73292C20583D6D86
:100890006178696D756D205859206A65726B2028E2
:1008A0006D6D2F73292C20205A3D6D6178696D750F
:1008B0006D205A206A65726B20286D6D2F73292C6C
:1008C0002020453D6D6178696D756D2045206A6514
:1008D000726B20286D6D2F73290A0020540020525E
:1008E0000020204D323034205000416363656C6538
:1008F000726174696F6E733A20503D7072696E74E4
:10090000696E672C20523D72657472616374206158
:100910006E6420543D74726176656C0A0020450057
:10092000205A0020590020204D3230312058004DEF
:100930006178696D756D20416363656C6572617482
:10094000696F6E20286D6D2F7332293A0A00204599
:1009500000205A0020590020204D3230332058000A
:100960004D6178696D756D20666565647261746549
:100970007320286D6D2F73293A0A00204500205AF4
:100980000020590020204D393220580053746570E2
:10099000732070657220756E69743A0A005761722F
:1009A0006E696E673A20486F6D696E672042756D9B
:1009B000702044697669736F72203C20310A000010
:1009C00000A0400000A0400000004000004843009C
:1009D00000484300000043FFFFFF48617264636FFB
:1009E0006465642044656661756C74205365747435
:1009F000696E6773204C6F616465640A007A5F6D8D
:100A000061783A20007A5F6D696E3A2000795F6DF7
:100A1000696E3A2000785F6D696E3A200052657009
:100A20006F7274696E6720656E6473746F70207383
:100A300074617475730A0045313A200045303A20DC
:100A4000005A3A2000593A2000583A20004D5331BC
:100A50002C4D53322050696E730A006265640A009F
:100A60002C2073797374656D2073746F7070656476
:100A700021204865617465725F49443A20004B4902
:100A80004C4C45442E2000202D20496E76616C6927
:100A900064206578747275646572206E756D626528
:100AA0007220210A004572723A204D415854454D3A
:100AB00050004D415854454D502074726967676528
:100AC000726564004572723A204D494E54454D504E
:100AD000004D494E54454D502074726967676572E8
:100AE000656400544845524D414C2052554E415783
:100AF000415900546865726D616C2052756E617762
:100B000061790048656174696E67206661696C652A
:100B1000640048656174696E67206661696C65642C
:100B20000048656174696E67206661696C65640080
:100B300048656174696E67206661696C656400521E
:100B40006573656E643A20006F6B00627573793A65
:100B50002070617573656420666F7220696E7075B0
:100B6000740A00627573793A207061757365642048
:100B7000666F7220757365720A00627573793A2028
:100B800070726F63657373696E670A004B494C4CF2
:100B900045442E20005072696E7465722068616C45
:100BA0007465642E206B696C6C28292063616C6C01
:100BB0006564210A002020506C616E6E657242757A
:100BC0006666657242797465733A200020467265E4
:100BD00065204D656D6F72793A2000436F6D7069C5
:100BE0006C65643A204175672032352032303137E8
:100BF0000A00207C20417574686F723A2028547274
:100C0000756279205A6F6E672C204375626F696434
:100C1000290A00323031362D31322D303620313232
:100C20003A303000204C61737420557064617465F3
:100C3000643A20004375626F6964205A3120534C36
:100C400041203344205072696E7465723A207C20D2
:100C5000417567203235203230313732303A343204
:100C60003A30300A00312E312E302D5243380A00EE
:100C70004D61726C696E0020536F667477617265A6
:100C80002052657365740A00205761746368646F4D
:100C9000672052657365740A002042726F776E2078
:100CA0006F75742052657365740A00204578746509
:100CB000726E616C2052657365740A00506F7765BF
:100CC0007255700A0073746172740A0024F4D4308F
:100CD00050C38E20C2A24017828B7011127A910DE0
:100CE000816CD90AA861E108C758660761514306BB
:100CF0001E4B5D05C145A7041A411104093D980327
:100D0000713931034036DB0265339102D43054022D
:100D1000802E1D02632CEE01752AC501B028A001AA
:100D2000102781018F2564012B244B01E02234011F
:100D3000AC211F018D200D01801FFC00841EED00E1
:100D4000971DDF00B81CD200E61BC600201BBC00AC
:100D5000641AB200B219A8000A19A0006A18990012
:100D6000D117910040178B00B516840031167E0014
:100D7000B31579003A157300C7146F0058146A0050
:100D8000EE1366008813630025135E00C7125B0034
:100D90006C12570015125400C111510070114F0010
:100DA00021114B00D61049008D1047004610440019
:100DB00002104200C00F4000800F3E00420F3C0076
:100DC000060F3B00CB0E3800930E37005C0E35004B
:100DD000270E3400F30D3200C10D3100900D3000AC
:100DE000600D2E00320D2D00050D2C00D90C2B00AE
:100DF000AE0C2900850C29005C0C2700350C27005F
:100E00000E0C2600E80B2400C40B2400A00B2300CA
:100E10007D0B23005A0B2100390B2100180B2000F9
:100E2000F80A1F00D90A1E00BB0A1E009D0A1D00F9
:100E3000800A1D00630A1C00470A1B002C0A1B00C5
:100E4000110A1A00F7091A00DD091900C40919006E
:100E5000AB091900920917007B09180063091700F4
:100E60004C09160036091600200916000A0915005B
:100E7000F5081500E0081400CC081400B8081400A8
:100E8000A4081400900813007D0812006B081300DA
:100E900058081200460812003408110023081100F7
:100EA0001208110001081100F0071000E0071000FF
:100EB000D0071000C0071000B0070F00A1071000F6
:100EC00091070E0083070F0074070F0065070E00DF
:100ED00057070E0049070E003B070D002E070E00B6
:100EE00020070D0013070D0006070D00F9060C0082
:100EF000ED060D00E0060C00D4060C00C8060C0040
:100F0000BC060C00B0060C00A4060B0099060C00F1
:100F10008D060B0082060B0077060B006C060B009B
:100F200061060A0057060B004C060A0042060A003A
:100F300038060A002E060A0024060A001A060A00CD
:100F40001006090007060A00FD050900F40509005E
:100F5000EB050900E2050900D9050900D0050900E3
:100F6000C7050900BE050900B5050800AD05080064
:100F7000A50509009C050800940508008C050800DB
:100F8000840508007C050800740508006C0507004E
:100F9000650508005D050700560508004E050700B9
:100FA0004705070040050800380507003105070020
:100FB0002A050700230507001C0506001605070083
:100FC0000F0507000805060002050700FB040600E0
:100FD000F5040700EE040600E8040600E20407003A
:100FE000DB040600D5040600CF040600C904060091
:100FF000C3040600BD040600B7040600B1040500E2
:10100000AC040600A6040600A00405009B0406002C
:1010100095040500900406008A0405008504050077
:10102000800406007A0405007504050070040500BC
:101030006B04050066040500610405005C040500FE
:1010400057040500520405004D040500480405003E
:10105000430405003E0404003A040500350405007D
:10106000300404002C0405002704040023040500B8
:101070001E0404001A0404001604050011040400F0
:101080000D04040009040500040404000004040025
:10109000FC030400F8030400F4030400F00304005C
:1010A000EC030400E8030400E4030400E00304008C
:1010B000DC030400D8030400D4030400D0030400BC
:1010C000CC030400C8030300C503030024F404D9BF
:1010D000201BC40C5C0E9804C4095F0265077101F3
:1010E000F405F900FB04B30048048700C10369005C
:1010F0005803550003034500BE023A008402310044
:1011000053022A002902250004022000E4011C00E9
:10111000C8011900AF0117009801140084011300E1
:10112000710110006101100051010E0043010D001A
:1011300036010B002B010B0020010B0015010900EB
:101140000C01090003010800FB000800F30008007F
:10115000EB000700E4000600DE000600D8000600F1
:10116000D2000600CC000500C7000500C200050043
:10117000BD000400B9000400B5000400B100040083
:10118000AD000400A9000400A5000300A2000300B4
:101190009F0004009B0003009800030095000200DC
:1011A00093000300900003008D0002008B000300F9
:1011B0008800020086000200840003008100020013
:1011C0007F0002007D0002007B0002007900020027
:1011D0007700010076000200740002007200010036
:1011E000710002006F0002006D0001006C0002003F
:1011F0006A0001006900020067000100660001004A
:10120000650001006400020062000100610001004D
:10121000600001005F0002005D0001005C00010051
:101220005B0001005A000100590001005800010054
:101230005700010056000100550001005400010054
:101240005300000053000100520001005100010052
:10125000500001004F0001004E0000004E00010050
:101260004D0001004C0001004B0000004B0001004C
:101270004A00010049000100480000004800010048
:101280004700010046000000460001004500000044
:10129000450001004400010043000000430001003C
:1012A0004200000042000100410000004100010036
:1012B000400001003F0000003F0001003E00000030
:1012C0003E0001003D0000003D0001003C00000028
:1012D0003C0000003C0001003B0000003B0001001E
:1012E0003A0000003A000100390000003900010016
:1012F000380000003800000038000100370000000E
:101300003700010036000000360000003600010002
:1013100035000000350000003500010034000000F9
:1013200034000000340001003300000033000000EE
:1013300033000100320000003200000032000100E2
:1013400031000000310000003100010030000000D9
:1013500030000000300001002F0000002F000000CE
:101360002F0000002F0001002E0000002E000000C2
:101370002E0001002D0000002D0000002D000000B7
:101380002D0001002C0000002C0000002C000000AB
:101390002C0001002B0000002B0000002B0000009F
:1013A0002B0001002A0000002A0000002A00000093
:1013B0002A00010029000000290000002900000087
:1013C000290000002900010028000000280000007A
:1013D000280000002800000028000100270000006D
:1013E0002700000027000000270000002700010060
:1013F0002600000026000000260000002600000055
:101400002600010025000000250000002500000046
:101410002500000025000000250001002400000038
:10142000240000002400000024000000240001002B
:101430002300000023000000230000002300000020
:101440002300000023000000230001002200000010
:101450002200000022000000220000002200000004
:1014600022000100210000002100000021000000F6
:1014700021000000210000002100000021000100E7
:1014800020000000200000002000000020000000DC
:1014900020000000200000002000000020000100CB
:1014A0001F0000001F0000001F0000001F000000C0
:1014B0001F0000001F0000001F0001001E000000B0
:1014C0001E0000001E0000001E00000000002100A1
:1014D000240027002A002D00300033000101000005
:1014E000040107010A0100002200250028002B004A
:1014F0002E003100340002010000050108010B013B
:10150000000020002300260029002C002F003200BC
:101510000001000003010601090105050505070595
:1015200008080808020202020A0A0808040404045F
:10153000010101010101010103030303030303038B
:10154000040707070C0C0C0C0C0C0C0C020202021A
:1015500006060606060606060B0B0B0B0B0B0B0B03
:1015600007070A0A0A0A0A0A050505040404080806
:1015700001021020200808102040102040800201A5
:10158000020108040201010204081020408080408A
:101590002010080402018004020180402010080489
:1015A0000201080402010102040810204080010227
:1015B00004081020408010080408801020400440D7
:1015C00080102040048000000A0B02090C0D0E0858
:1015D00007030401000000000000000000000000FC
:1015E00000000000000000000000000000000000FB
:1015F00000001211100000000000000000000000B8
:1016000000000000000000000000000000000000DA
:1016100000000000000000000000000070012C012C
:1016200090012701B0012201C0011D01F001180144
:101630001002130130020E01600209019002040140
:10164000C002FF000003FA004003F5008003F00031
:10165000D003EB002004E6007004E100E004DC00AD
:101660004005D700C005D2004006CD00D006C80016
:101670008007C3003008BE00F008B900C009B400FC
:10168000B00AAF00B00BAA00D00CA500000EA0005D
:10169000500F9B00C01096005012910000148C0057
:1016A000C0158700B0178200B0197D00D01B7800EC
:1016B000001E730040206E0090226900F024640038
:1016C00040275F0090295A00E02B5500102E500053
:1016D00020304B0010324600E033410090353C0092
:1016E0001037370070383200A0392D00B03A28008A
:1016F000A03B2300603C1E00103D1900903D1400EB
:10170000103E0F00703E0A00C03E0500003F000082
:1017100042616420493243206164647265737320BE
:1017200028382D313237290A006563686F3A000086
:10173000A15D11241FBECFEFD1E2DEBFCDBF00E01F
:101740000CBF13E0A0E0B2E0E6ECF2ED00E00BBF6E
:1017500002C007900D92A239B107D9F72DE0A2E996
:10176000B3E001C01D92A03BB207E1F71BE0C9E95D
:10177000DBE000E006C021970109802FFE010E94F6
:101780003A69C839D10780E00807A9F70E94844266
:101790000C9461690C9400008FB7F8949091DC0769
:1017A0002091DB07291759F0E92FF0E0E55AF84FAF
:1017B000208130E09F5F9F779093DC0702C02FEF7E
:1017C0003FEF8FBFC90108950F931F93CF93DF930E
:1017D000FC0120812B3301F110917E061430E0F4DE
:1017E000062FBC0190918806C92FD0E0F0E69F9F9C
:1017F000C001112480529B4F0E945A69FE01EF5193
:10180000F84F00832196C370DD27C09388061F5FC1
:1018100010937E0681E001C080E0DF91CF911F919F
:101820000F91089580E1E6E9F3E0A2ECB4E00190C5
:101830000D928A95E1F70895CF92EF92FF920F9360
:101840001F93C090D5047B018C0122EA33E04EE95E
:1018500053E06AE973E086E993E00E9455181F910E
:101860000F91FF90EF90CF900895CF92EF92FF925B
:101870000F931F93E0900002F0900102009102028A
:1018800010910302C090D5042EEC34E04AEC54E0F1
:1018900066EC74E082EC94E00E9455181F910F9161
:1018A000FF90EF90CF900895682F880F770B80916D
:1018B000DD049091DE040E9446699C019093190416
:1018C0008093180481E0232B09F480E0089580912F
:1018D0001804909119044AE050E060E070E001962D
:1018E0000E94715F97FD1EC08091180490911904A9
:1018F0004AE050E060E070E001960E94715F6F3F47
:1019000071058105910509F07CF48091180490918E
:1019100019044AE050E060E070E001960E94715FB7
:10192000862F089580E008958FEF0895E0911804C0
:10193000F0911904818121E030E0803239F42F5F89
:101940003F4FDF01A20FB31F8C91F7CF8D3211F003
:101950008B3231F42F5F3F4FDF01A20FB31F8C9109
:101960008E3219F4E20FF31F818180538A3030F4F4
:10197000AEDF91E0811103C090E001C091E0892FBA
:10198000089580911804909119044AE050E060E0B5
:1019900070E001960E949960CB010895809118042F
:1019A000909119044AE050E060E070E001960E94D6
:1019B000715FCB0108950F931F93CF93DF93C09175
:1019C0001804D091190465E470E0CE010E944669C4
:1019D0008C01CE0101960115110571F0F8011082FC
:1019E00060E070E00E940B5E25E4F8012083DF9147
:1019F000CF911F910F91089560E070E0DF91CF913A
:101A00001F910F910C940B5EBF92CF92DF92EF92D9
:101A1000FF920F931F93CF93DF9386E9E82E83E025
:101A2000F82E02EC14E096EDC92E94E0D92ECAE906
:101A3000D2E0BC2E84E0B80E899136DF8823D1F045
:101A4000BADFF6012081211104C02091DA0422239B
:101A500031F0F801208131814281538103C020E0BF
:101A600030E0A9010E944666F7016083718382839A
:101A700093830AC0F80180819181A281B381F7012B
:101A800080839183A283B383F4E0EF0EF11C0C5F9B
:101A90001F4F8FEFC81AD80ABC12CECF86E404DFDE
:101AA0008823B9F088DF20E030E0A9010E946C684B
:101AB00018167CF480DF20E030E040E752E40E941A
:101AC0002267609300027093010280930202909358
:101AD0000302DF91CF911F910F91FF90EF90DF9064
:101AE000CF90BF9008952EEC34E04AEC54E066ECC1
:101AF00074E082EC94E00C94D83B88E893E19093F6
:101B0000C30C8093C20C80916F008D7F80936F0017
:101B10009091650D8091660D981719F00E94B93467
:101B2000F7CF109204071092030780916F00826034
:101B300080936F000E94102E80E090E00E94F22DB2
:101B40006093EE067093EF068093F0069093F10693
:101B500081E090E00E94F22D6093F2067093F3060C
:101B60008093F4069093F50682E090E00E94F22DB7
:101B70006093F6067093F7068093F8069093F90643
:101B80008CE0EEEEF6E0A2ECB4E001900D928A95C6
:101B9000E1F7A9CFAF92BF92CF92DF92EF92FF927F
:101BA0000F931F93CF93DF9300D01F92CDB7DEB773
:101BB00079015C01AA0CBB1CAA0CBB1CC5018E538D
:101BC0009B4F6C01FC0110821182128213824983A7
:101BD0005A836B837C8387DF49815A816B817C8147
:101BE000F6014083518362837383C090D50420E063
:101BF00030E0A901B801C7010E944562811108C007
:101C0000F501EC52FD4F308121819281838104C026
:101C1000302F212F9E2D8F2DE32EF22E092F182FDE
:101C20002EEC34E04AEC54E066EC74E082EC94E094
:101C30000E9455180E94102E10927C060F900F9053
:101C40000F900F90DF91CF911F910F91FF90EF9028
:101C5000DF90CF90BF90AF900895FC016591759192
:101C6000859194910895CF92DF92EF92FF920F9316
:101C70001F93CF93DF93EC01CC0FDD1FCC0FDD1F43
:101C8000FE01E655FB4F20E030E0A9016081718143
:101C9000828193810E944666FE01E256FB4F2081BD
:101CA0003181428153810E9446666B017C01CE01E5
:101CB0008E59984FD2DF8E010A541B4FA70196010F
:101CC0000E944666F8016083718382839383CE010C
:101CD0008A5A984FC2DFCC5DDD4FA70196010E9462
:101CE0004666688379838A839B83DF91CF911F91B6
:101CF0000F91FF90EF90DF90CF9008950E94353FB5
:101D0000609392037093930380939403909395034D
:101D100008959091C00095FFFCCF8093C600089570
:101D20000F931F93CF93DF931F921F92CDB7DEB710
:101D3000FC0184918F010F5F1F4F811102C08B0145
:101D400007C069837A83E5DFF80169817A81F1CF81
:101D5000F80181918F01882311F0DBDFF9CF0F901B
:101D60000F90DF91CF911F910F9108958F929F92C5
:101D7000AF92BF92EF92FF921F93CF93DF93CDB7B5
:101D8000DEB7A0970FB6F894DEBF0FBECDBF6115CA
:101D900071058105910579F110E0842E912CA12C1B
:101DA000B12CEE24E394F12CEC0EFD1EE10EF11C9F
:101DB00017FDFA94A50194010E940A66F701608359
:101DC000B901CA011F5F611571058105910549F7C8
:101DD000115010F1E1E0F0E0EC0FFD1FE10FF11DFB
:101DE00017FDFA9580818A3010F097E301C090E3E7
:101DF000890F8FDFEDCF80E3A0960FB6F894DEBF9A
:101E00000FBECDBFDF91CF911F91FF90EF90BF909C
:101E1000AF909F908F907DCFA0960FB6F894DEBFC5
:101E20000FBECDBFDF91CF911F91FF90EF90BF907C
:101E3000AF909F908F900895CF92DF92EF92FF9294
:101E4000CF93DF936A017B01FC018491EF0121961E
:101E5000882319F05EDFFE01F8CF4AE0C701B60122
:101E6000DF91CF91FF90EF90DF90CF907FCFCF9217
:101E7000DF92EF92FF926B017C0197FF0AC08DE227
:101E800048DFF094E094D094C094C11CD11CE11CB4
:101E9000F11C4AE0C701B601FF90EF90DF90CF90B0
:101EA00065CFEF92FF920F931F93CF93DF931F9213
:101EB000CDB7DEB7082F162FEAEAF5E084917F014F
:101EC0002FEFE21AF20A882329F0998322DFF70123
:101ED0009981F4CFE02FF92F84917F019FEFE91AC8
:101EE000F90A882319F015DFF701F6CF6091DD07B5
:101EF0007091DE078091DF079091E007B8DF8AE0FC
:101F000008DF11110E942E341092EC061092EB069D
:101F10000F90DF91CF911F910F91FF90EF90089557
:101F20004F925F926F927F92BF92CF92DF92EF9229
:101F3000FF920F931F93CF93DF93CDB7DEB76E97CA
:101F40000FB6F894DEBF0FBECDBF609189067091C9
:101F50008A066115710561F14DE150E08E010F5F58
:101F60001F4FC8010E94ED611E8EF8017F01E01A2B
:101F7000F10AB190BB2099F12AE0B212F7CF2FC03D
:101F8000B8018BE096E0CCDE82E2C3DE8AE0C1DEFF
:101F9000BB2009F43AC0EFEFEE1AFE0A80918906E1
:101FA00090918A06E80EF91EF0928A06E092890660
:101FB0008091890690918A06892B09F048C1809109
:101FC0007E06843008F043C12FB7F8948091DB0778
:101FD0009091DC072FBF891B8F77E1F438C1F8019E
:101FE000EE0DFF1D108260E0C801EEDB882301F3D7
:101FF000E9E2F7E184916F019FEFC91AD90A8823BA
:1020000009F4BECF86DEF601F5CF10928A06109253
:102010008906CECFC1DB2091EB063091EC068A30E9
:1020200019F08D3009F0E3C01092ED06211531054D
:1020300009F4C5CFF901E557F94F10821092EC066B
:102040001092EB062BE836E07901F90180812F5FD1
:102050003F4F8032C9F387018E3411F0E12CF12C0F
:102060006AE270E0C8010E9446696C01E114F10463
:1020700009F474C06EE377E0C8010E94FC61BB24E0
:10208000B394892B11F4B12C09C06EE470E0C8013F
:1020900004960E944669009709F07C014AE050E0EE
:1020A00060E070E0C70101960E94715F6093B70322
:1020B0007093B8038093B9039093BA034090DD07FF
:1020C0005090DE076090DF077090E007FFEF4F1A37
:1020D0005F0A6F0A7F0A641575058605970531F05A
:1020E000B11004C061E08BE097E03DC0C114D104A1
:1020F00001F180E0F12CF801E80FF11D90819A3296
:1021000019F08F5FF926F7CF4AE050E060E070E009
:10211000C60101960E94715FCF2CD12CE12CF12CCD
:102120006C157D058E059F0541F061E08CEE96E013
:102130001AC061E082EC96E016C08091B7039091DE
:10214000B803A091B903B091BA038093DD079093CF
:10215000DE07A093DF07B093E00707C0892B29F0C3
:1021600060E088E196E09DDE72C0809130028111CE
:102170001DC067E470E0C8010E9446690097B1F095
:102180004AE050E060E070E001960E94715F6430C8
:10219000710560F4EBE4F6E084917F012FEFE21A21
:1021A000F20A882319F0B5DDF701F6CF60E673E097
:1021B000C8010E945169892B11F41092310265E621
:1021C00073E0C8010E945169892B21F482E496E0F2
:1021D0000E94BB306AE673E0C8010E945169892BF6
:1021E00009F48BDC61E08BE896E0EEDAE8CE2F357F
:1021F00031050CF0E4CE8C35A9F42FB7F89480911A
:10220000DB079091DC072FBF891B8F7709F4D7CEAE
:10221000C3DA9091ED069111D2CE2091EB06309168
:10222000EC0609C08B3319F491E09093ED06909180
:10223000ED069111C4CEA9014F5F5F4F5093EC069C
:102240004093EB06F901E557F94F8083B8CE6E96BF
:102250000FB6F894DEBF0FBECDBFDF91CF911F91B7
:102260000F91FF90EF90DF90CF90BF907F906F9095
:102270005F904F9008950F931F93CF93DF938B013F
:10228000FC018491EF012196882319F042DDFE01C3
:10229000F8CFB801110F880B990BDF91CF911F91E7
:1022A0000F91E5CDEF92FF921F93CF93DF937C01C7
:1022B00084E5FADA182F882311F109DB8823D1F09D
:1022C000E9E2F7E18491EF012196882319F021DDFD
:1022D000FE01F8CF8DE41DDDB701FF0C880B990BD3
:1022E000C6DDF5DA682F70E083E497E0C4DF8AE0AA
:1022F00010DD09C0ECDA80939D0410E004C08091E9
:10230000D50480939D04812FDF91CF911F91FF9081
:10231000EF9008958F929F92AF92BF92CF92DF92EB
:10232000EF92FF92CF936B017C01B42E20E030E05E
:10233000A9010E94456287FF06C08DE2EADCF7FA38
:10234000F094F7F8F094C0E060E070E080E09FE384
:10235000CB1541F02DEC3CEC4CEC5DE30E94AA6205
:10236000CF5FF6CF9B01AC01C701B6010E94466664
:102370006B017C010E948F674B015C014AE0F6DC37
:10238000CC2379F1C501B4010E9449629B01AC01E3
:10239000C701B6010E9445666B017C018EE2B9DC83
:1023A00020E030E040E251E4C701B6010E94AA6299
:1023B0004B015C010E948A676B01770FEE08FF08F2
:1023C000C701B60154DDC701B6010E944B629B01F3
:1023D000AC01C501B4010E9445666B017C01C1508E
:1023E000F9F6CF91FF90EF90DF90CF90BF90AF9034
:1023F0009F908F9008954F925F926F927F928F92ED
:102400009F92AF92BF92CF92DF92EF92FF92CF93C3
:10241000DF93E8E9F7E08491EF012196882319F032
:1024200078DCFE01F8CF6091C2047091C304809102
:10243000C4049091C50442E06DDFE4E9F7E08491C3
:10244000EF012196882319F064DCFE01F8CF60913A
:10245000C6047091C7048091C8049091C90442E0F9
:1024600059DFE0E9F7E08491EF012196882319F024
:1024700050DCFE01F8CF6091CA047091CB048091CA
:10248000CC049091CD0442E045DFECE8F7E0849184
:10249000EF012196882319F03CDCFE01F8CF609112
:1024A000CE047091CF048091D0049091D10442E089
:1024B00031DF8FB7F8944090A6035090A703609047
:1024C000A8037090A9038090AA039090AB03A090FA
:1024D000AC03B090AD03C090AE03D090AF03E090DA
:1024E000B003F090B1038FBFE1E8F7E08491EF0112
:1024F0002196882319F00DDCFE01F8CFC301B2014B
:10250000B6DCEDE7F7E08491EF012196882319F01E
:1025100000DCFE01F8CFC501B401A9DCE9E7F7E072
:102520008491EF012196882319F0F3DBFE01F8CFA7
:10253000C701B6019CDC8AE0DF91CF91FF90EF905C
:10254000DF90CF90BF90AF909F908F907F906F90D3
:102550005F904F90DECBCF93DF93E5E7F7E0849178
:10256000EF012196882319F0D4DBFE01F8CF6091AA
:102570003D0D70913E0D80913F0D9091400D41E0D9
:10258000C9DEE2E7F7E08491EF012196882319F094
:10259000C0DBFE01F8CF60913B0D70913C0D072E22
:1025A000000C880B990B0E944B6241E0B3DEEEE613
:1025B000F7E08491EF012196882319F0AADBFE0150
:1025C000F8CFE0919D04F0E0E456FB4F608170E0AD
:1025D00080E090E0DF91CF914ACCCF92DF92EF92F2
:1025E000FF92CF93DF936A017B01FC018491EF019D
:1025F0002196882319F08DDBFE01F8CF42E0C70158
:10260000B601DF91CF91FF90EF90DF90CF9082CE17
:10261000CF92DF92EF92FF92CF93DF936A017B011B
:10262000FC018491EF012196882319F072DBFE01F1
:10263000F8CF42E0C701B601DF91CF91FF90EF9054
:10264000DF90CF9067CE0F931F93CF9383E52CD964
:10265000C82F882309F47FC269D981117CC201C0C7
:10266000C0E04091DA035091DB036091DC0370918C
:10267000DD0384E899E0CCDF4091DE035091DF0375
:102680006091E0037091E10381E899E0C1DF40913E
:10269000E2035091E3036091E4037091E5038EE758
:1026A00099E0B6DF4091E6035091E7036091E803BB
:1026B0007091E9038BE799E0ABDF8AE02ADBC11177
:1026C00021C0E9E2F7E184918F010F5F1F4F88235A
:1026D00019F01FDBF801F7CFE0E6F9E084918F01F4
:1026E0000F5F1F4F882319F014DBF801F7CFE9E2E1
:1026F000F7E184918F010F5F1F4F882319F009DBE9
:10270000F801F7CF4091FC035091FD036091FE0367
:102710007091FF0387E599E07BDF409100045091C1
:102720000104609102047091030484E599E070DF74
:1027300040910404509105046091060470910704CF
:1027400081E599E065DF40910804509109046091AA
:102750000A0470910B048EE499E05ADF8AE0D9DA1A
:10276000C11121C0E9E2F7E184918F010F5F1F4F92
:10277000882319F0CEDAF801F7CFEFE2F9E084917F
:102780008F010F5F1F4F882319F0C3DAF801F7CFCD
:10279000E9E2F7E184918F010F5F1F4F882319F061
:1027A000B8DAF801F7CF4091EC035091ED03609156
:1027B000EE037091EF0386E299E03EDB4091F00377
:1027C0005091F1036091F2037091F30383E299E079
:1027D00033DB4091F4035091F5036091F60370915F
:1027E000F70380E299E028DB4091F8035091F90368
:1027F0006091FA037091FB038DE199E01DDB8AE0A3
:1028000088DAC11121C0E9E2F7E184918F010F5FFD
:102810001F4F882319F07DDAF801F7CFEAEEF8E0D0
:1028200084918F010F5F1F4F882319F072DAF8012E
:10283000F7CFE9E2F7E184918F010F5F1F4F882303
:1028400019F067DAF801F7CF40911404509115049C
:10285000609116047091170481EE98E0D9DE4091E2
:102860000C0450910D0460910E0470910F048EEDD4
:1028700098E0CEDE40911004509111046091120452
:10288000709113048BED98E0C3DE8AE042DAC11147
:1028900021C0E9E2F7E184918F010F5F1F4F882388
:1028A00019F037DAF801F7CFE7E2F8E084918F0109
:1028B0000F5F1F4F882319F02CDAF801F7CFE9E2F8
:1028C000F7E184918F010F5F1F4F882319F021DA00
:1028D000F801F7CF409132045091330460913404F1
:1028E000709135048EE198E093DE40912E04509172
:1028F0002F0460913004709131048BE198E088DE00
:1029000040912A0450912B0460912C0470912D0465
:1029100088E198E091DA40911A0450911B0460918B
:102920001C0470911D0485E198E072DE40911E0444
:1029300050911F04609120047091210482E198E07D
:1029400067DE409122045091230460912404709129
:1029500025048FE098E05CDE409126045091270426
:1029600060912804709129048CE098E051DE8AE09F
:10297000D0D9C11121C0E9E2F7E184918F010F5F45
:102980001F4F882319F0C5D9F801F7CFEAEFF7E018
:1029900084918F010F5F1F4F882319F0BAD9F80176
:1029A000F7CFE9E2F7E184918F010F5F1F4F882392
:1029B00019F0AFD9F801F7CF4091AA045091AB04B8
:1029C0006091AC047091AD0481EF97E021DE4091FD
:1029D000AE045091AF046091B0047091B1048EEEDA
:1029E00097E016DE4091B2045091B3046091B404B4
:1029F0007091B5048BEE97E00BDE8AE08AD9C111A5
:102A000021C0E9E2F7E184918F010F5F1F4F882316
:102A100019F07FD9F801F7CFECEDF7E084918F0141
:102A20000F5F1F4F882319F074D9F801F7CFE9E23F
:102A3000F7E184918F010F5F1F4F882319F069D947
:102A4000F801F7CF409120025091210260912202BB
:102A50007091230283ED97E0DBDD2CE933E549E457
:102A60005EE360911C0270911D0280911E029091A4
:102A70001F020E942267AB01BC0180ED97E0ADDD33
:102A80002CE933E549E45EE3609118027091190284
:102A900080911A0290911B020E94AA62AB01BC01B4
:102AA0008DEC97E09ADD8AE034D9C11129C0E9E2C2
:102AB000F7E184918F010F5F1F4F882319F029D907
:102AC000F801F7CFEAEBF7E084918F010F5F1F4F1A
:102AD000882319F01ED9F801F7CF8091EB038823E2
:102AE00019F08AE016D959C0EFEAF7E084918F0116
:102AF0000F5F1F4F882309F450C00BD9F801F6CFA0
:102B000040910F02509110026091110270911202D7
:102B100086EA97E07DDD8AE0FCD88091EB038111A5
:102B200048C0CC2319F0EBE9F7E00BC0E9E2F7E18C
:102B300084918F010F5F1F4F8823A9F3EAD8F80112
:102B4000F7CF84918F010F5F1F4F882309F431C0A5
:102B5000E0D8F801F6CFE9E2F7E184918F010F5F49
:102B60001F4F882319F0D5D8F801F7CFECE8F9E02A
:102B700084918F010F5F1F4F882319F0CAD8F80185
:102B8000F7CFE9E2F7E184918F010F5F1F4F8823B0
:102B900009F466CDBED8F801F6CFE9E2F7E18491F9
:102BA0008F010F5F1F4F882309F4AACFB2D8F80115
:102BB000F6CFCF911F910F9108951F920F920FB6EC
:102BC0000F9211240BB60F922F933F938F939F93E5
:102BD000EF93FF932091C6009FB7F894E091DB0735
:102BE00081E08E0F8F773091DC07831731F0F0E0B2
:102BF000E55AF84F20838093DB079FBFFF91EF9149
:102C00009F918F913F912F910F900BBE0F900FBE10
:102C10000F901F9018954F925F926F927F92AF9294
:102C2000BF92CF92DF92EF92FF920F931F93CF93B9
:102C3000DF93009709F456C0FC01208121FD52C0AA
:102C4000EB018C0147A050A461A472A4AFA0B8A46A
:102C5000C9A4DAA49501A601C301B2010E9445628C
:102C600087FF40C0A3019201C301B2010E94AA6282
:102C70002B013C01F80183A994A9A5A9B6A9BC011F
:102C8000CD0190589B01AC010E944666F80127A532
:102C900030A941A952A90E94AA629B01AC01C301BB
:102CA000B2010E9445660E94B1687B018C019B01C4
:102CB000AC01B501C6010E94456287FF02C07501E3
:102CC00086019701A801B501C6010E9445628823CB
:102CD00049F0A701B8014FA358A769A77AA788812F
:102CE00081608883DF91CF911F910F91FF90EF90CA
:102CF000DF90CF90BF90AF907F906F905F904F909C
:102D000008952F923F924F925F926F927F928F928F
:102D10009F92AF92BF92CF92DF92EF92FF920F936A
:102D20001F93CF93DF93CDB7DEB768970FB6F894B4
:102D3000DEBF0FBECDBF1C015B018A01DC01D7964F
:102D40006D917D918D919C91DA970E9449626B0102
:102D50007C01F50120813181428153810E94AA6268
:102D60000E940C670E948F6769877A878B879C8790
:102D7000D8012D913D914D915C91C701B6010E9402
:102D8000AA620E940C670E948F676D877E878F877B
:102D9000988B29853A854B855C8528373105410517
:102DA000510540F488E790E0A0E0B0E089879A8779
:102DB000AB87BC872D853E854F85588928373105DF
:102DC0004105510540F488E790E0A0E0B0E08D8730
:102DD0009E87AF87B88B91012D5B3F4FD9018D91B5
:102DE0009D910D90BC91A02D8D839E83AF83B8875C
:102DF000BC01CD010E944B6269837A838B839C83E3
:102E000069857A858B859C850E944962698B7A8B5E
:102E10008B8B9C8B20E030E0A90169817A818B81CA
:102E20009C810E944562882339F1A7019601C70160
:102E3000B6010E94AA624B015C0129893A894B893B
:102E40005C89CA01B9010E94AA629B01AC01C5015B
:102E5000B4010E9445664B015C0129813A814B8196
:102E60005C81CA01B9010E9446669B01AC01C501A3
:102E7000B4010E94226703C060E070E0CB010E94B1
:102E80000C670E948A672B013C016D817E818F81D6
:102E9000988590958095709561957F4F8F4F9F4F46
:102EA0000E944B624B015C016D857E858F85988900
:102EB0000E9449626D837E838F83988720E030E093
:102EC000A901C501B4010E944562882349F12D8101
:102ED0003E814F815885CA01B9010E94AA626D8B5B
:102EE0007E8B8F8B988FA7019601C701B6010E9438
:102EF000AA629B01AC016D897E898F89988D0E94A1
:102F000045666B017C01A5019401C501B4010E94D5
:102F100046669B01AC01C701B6010E94226703C04F
:102F200060E070E0CB010E94BB67F101828893886A
:102F3000A488B58875016401C418D508E608F708A7
:102F40000E948A67C61AD70AE80AF90AF7FE6BC018
:102F500020E030E0A90169817A818B819C810E9407
:102F60004562882309F447C029813A814B815C81FD
:102F7000CA01B9010E9446666B017C01C501B4011A
:102F80000E9449629B01AC01C701B6010E94AA627E
:102F90006B017C0129893A894B895C89CA01B90195
:102FA0000E94AA629B01AC01C701B6010E9445665E
:102FB0006B017C012D813E814F815885CA01B90189
:102FC0000E94AA629B01AC01C701B6010E9446663D
:102FD0006B017C0120E030E040E850E469817A81B7
:102FE0008B819C810E94AA629B01AC01C701B60142
:102FF0000E94226703C060E070E0CB010E940C6772
:103000000E948A672B013C0197FF03C0412C512C81
:103010003201481459046A047B0410F0240135017C
:10302000C12CD12C76018FB7F894D1019C9193FDDE
:1030300022C0F101468A578A608E718EC40CD51C5D
:10304000E61CF71C5A96CD92DD92ED92FC925D97AC
:1030500029853A854B855C85DB962D933D934D9371
:103060005C93DE97FF962D853E854F85588920839A
:103070003183428353838FBF68960FB6F894DEBFC7
:103080000FBECDBFDF91CF911F910F91FF90EF90B9
:10309000DF90CF90BF90AF909F908F907F906F9078
:1030A0005F904F903F902F9008952F923F924F92B4
:1030B0005F926F927F928F929F92AF92BF92CF92C8
:1030C000DF92EF92FF920F931F93CF93DF93CDB7D1
:1030D000DEB7CD56D1090FB6F894DEBF0FBECDBF17
:1030E0003B014A015901E9AEF9AA0DAF23961FAF82
:1030F00023973C2C2091DA033091DB034091DC03D1
:103100005091DD03DC016D917D918D919C910E9428
:10311000AA620E947768A6966CAF7DAF8EAF9FAF14
:10312000A6972091DE033091DF034091E003509198
:10313000E103F30160817181828193810E94AA621F
:103140000E947768AA966CAF7DAF8EAF9FAFAA97AB
:103150002091E2033091E3034091E4035091E503B1
:10316000D4016D917D918D919C910E94AA620E94E3
:103170007768AE966CAF7DAF8EAF9FAFAE97209164
:10318000E6033091E7034091E8035091E903F5012C
:1031900060817181828193810E94AA620E94776816
:1031A000A1966CAF7DAF8EAF9FAFA1978091550D6B
:1031B0009091560DA091570DB091580DA696CCAC9C
:1031C000DDACEEACFFACA697C81AD90AEA0AFB0A36
:1031D0008091590D90915A0DA0915B0DB0915C0DAD
:1031E000AA968CAC9DACAEACBFACAA97881A990AD3
:1031F000AA0ABB0A80915D0D90915E0DA0915F0DB2
:10320000B091600DAE960CAD1DAD2EAD3FADAE973D
:10321000081B190B2A0B3B0B0DA71EA72FA738ABBA
:103220008091DF0483FF0EC0A1962CAD3DAD4EAD65
:103230005FADA1972093610D3093620D4093630DB4
:103240005093640D8091610D9091620DA091630D7A
:10325000B091640DA1960CAD1DAD2EAD3FADA19703
:10326000081B190B2A0B3B0BC901B80126013701BA
:10327000442477FC4394552466247724142DB7FC0A
:1032800012602DA53EA54FA558A957FD146097FDC6
:103290001860432D50E026965FAF4EAF26970E94F0
:1032A0004B622696EEADFFAD2697EE0FFF1FEE0F99
:1032B000FF1FEE5CFD4F20813181428153810E94CE
:1032C000AA622B013C012696EEADFFAD2697EE0FCC
:1032D000FF1FEA5EFD4F60817181072E000C880B95
:1032E000990B0E944B629B01AC01C301B2010E9489
:1032F000AA622AE037ED43E25CE30E94AA626DAB6A
:103300007EAB8FAB98AF20E030E0A9010E946C68E3
:1033100018165CF420E030E040E05FE36DA97EA980
:103320008FA998AD0E9446660AC02DA93EA94FA953
:1033300058AD60E070E080E09FE30E9445660E9427
:103340008A6722966CAF7DAF8EAF9FAF2297809138
:10335000650D8F5F8F70A2968FAFA297682E880F32
:1033600077088091660D90E08615970519F40E9404
:10337000DD30F7CFE091650D8E2F90E09CA78BA7F5
:103380009DE4E99FF0011124EE50F84F108212A342
:10339000D701C601F7FE07C088279927DC018C19E1
:1033A0009D09AE09BF0982839383A483B5838DE40D
:1033B0000BA51CA5809FF001819FF00D1124EE50FC
:1033C000F84FD501C401B7FE07C088279927DC0153
:1033D00088199909AA09BB0986839783A087B187B1
:1033E0008DE40BA51CA5809FF001819FF00D112499
:1033F000EE50F84F8DA59EA5AFA5B8A9B7FF07C0A1
:10340000B095A095909581959F4FAF4FBF4F828704
:103410009387A487B5878DE40BA51CA5809FF00139
:10342000819FF00D1124EE50F84F22962CAD3DAD4A
:103430004EAD5FAD229726873787408B518B4281F7
:1034400053816481758186819781A085B1858417B8
:103450009507A607B70714F4DB01CA012DE40BA5F5
:103460001CA5209FF001219FF00D1124EE50F84F74
:10347000028513852485358580179107A207B30738
:1034800014F4D901C80122960CAD1DAD2EAD3FAD8F
:10349000229780179107A207B30714F4D901C80136
:1034A0002DE40BA51CA5209FF001219FF00D1124F8
:1034B000EE50F84F828B938BA48BB58B0697A105AA
:1034C000B10510F40C943024DF01A95BBF4F80914B
:1034D000BD039091BE0311969C938E93129680919A
:1034E000BF039091C00311969C938E931296809186
:1034F000C1039091C2038D939C933182452B462B3F
:10350000472B09F017988DE40BA51CA5809FF001AF
:10351000819FF00D1124EE50F84F86819781A08590
:10352000B185892B8A2B8B2B09F016988DE40BA57E
:103530001CA5809FF001819FF00D1124EE50F84FE3
:1035400082859385A485B585892B8A2B8B2B09F0E1
:10355000159A22962CAD3DAD4EAD5FAD2297232B33
:10356000242B252BB1F08091FE06882319F0815081
:103570008093FE06311004C0149880E28093FE060A
:1035800020903204309033040091340410913504BB
:1035900008C020902E0430902F0400913004109128
:1035A00031049101A80169AD79A98DAD23969FAD34
:1035B00023970E94456287FD02C00C942824C7010E
:1035C000B6010E944B6220916006309161064091E5
:1035D0006206509163060E94AA622B013C01698B2E
:1035E0007A8B8B8B9C8BC501B4010E944B6220911E
:1035F00064063091650640916606509167060E9408
:10360000AA624B015C016D8B7E8B8F8B988F6DA5B1
:103610007EA58FA598A90E944B62209168063091E3
:10362000690640916A0650916B060E94AA626B017E
:103630007C01698F7A8F8B8F9C8F20916C063091E3
:103640006D0640916E0650916F066DA97EA98FA9F7
:1036500098AD0E94AA626D8F7E8F8F8F98A32DE404
:103660004BA55CA5249FF001259FF00D1124EE5081
:10367000F84F22813381448155812DA73EA74FA762
:1036800058AB2630310541055105D4F426813781E8
:103690004085518526303105410551058CF4228540
:1036A000338544855585263031054105510544F45F
:1036B000DC01CB01BF7787A790ABA1ABB2AB32C027
:1036C000A3019201C301B2010E94AA622B013C0135
:1036D000A5019401C501B4010E94AA629B01AC013D
:1036E000C301B2010E9446664B015C01A70196012D
:1036F000C701B6010E94AA629B01AC01C501B401D9
:103700000E9446660E94B1682DE44BA55CA5249FEB
:10371000F001259FF00D1124EE50F84F67A770AB14
:1037200081AB92AB8DE4ABA5BCA58A9FF0018B9FCA
:10373000F00D1124EE50F84F27A530A941A952A948
:103740006D962CAF3DAF4EAF5FAF6D9760E070E010
:1037500080E89FE30E9422672B966CAF7DAF8EAF0F
:103760009FAF2B979B01AC01B101C8010E94AA62D7
:103770006B017C018091650D9091660D891B8F70A6
:1037800027968FAF2797A701960160E074E284E740
:1037900099E40E9422670E9477684B015C0127969A
:1037A0000FAD2797802F90E002970697A0F58091A4
:1037B0002A0490912B04A0912C04B0912D0488161A
:1037C0009906AA06BB0638F588199909AA09BB0902
:1037D000BC01CD01660F771F881F991F10E020E004
:1037E00030E0A90198010E940A66CA01B9010E944D
:1037F00049620E947768680D791D8A1D9B1D0E9491
:1038000049629B01AC0160E074E284E799E40E94A4
:1038100022676B017C01A70196016D966CAD7DADB1
:103820008EAD9FAD6D970E94AA6261966CAF7DAF21
:103830008EAF9FAF61978DE42BA53CA5829F800141
:10384000839F100D11240E50184F61968CAD9DADC5
:10385000AEADBFAD6197F80183A394A3A5A3B6A3B2
:1038600022893389448955892DAB3EAB4FAB58AF84
:10387000CA01B9010E94496269AF7AAF8BAF9CAFB0
:10388000A70196010E94AA620E940C670E948F679E
:1038900065966CAF7DAF8EAF9FAF6597F80167AB54
:1038A00070AF81AF92AF8E010F5E1F4F24961FAF96
:1038B0000EAF2497005111092D961FAF0EAF2D9713
:1038C0000CEF13E069961FAF0EAF69978E010F5D85
:1038D0001F4F1AA709A72D960EAD1FAD2D976796FE
:1038E0001FAF0EAF6797212C312C10E819AB0FE3F7
:1038F0000DAF2496AEADBFAD24976D917D918D91A6
:103900009D912496BFAFAEAF2497A70196010E9468
:10391000AA626796EEADFFAD67976193719381934D
:1039200091936796FFAFEEAF67974B015C01E89408
:10393000B7F86996AEADBFAD69974D905D906D904B
:103940007D906996BFAFAEAF6997A3019201C501A3
:10395000B4010E946C681816A4F4A5019401C30177
:10396000B2010E9422675B018C019B01AC01B10195
:1039700089A99DAD0E946C6818161CF4150109AB4D
:103980001DAF24960EAD1FAD249729A53AA50217A9
:10399000130709F0AECF20E030E040E85FE3B1016B
:1039A00089A99DAD0E94456287FF4BC07E0131E130
:1039B000E30EF11C2D960EAD1FAD2D97910149A977
:1039C0005DADD8016D917D918D919C910E94AA620F
:1039D000F80161937193819391938F01EE15FF0527
:1039E00069F78DE42BA53CA5829F8001839F100D74
:1039F00011240E50184F910149A95DAD61966CAD2F
:103A00007DAD8EAD9FAD61970E94AA62D80193965D
:103A10006D937D938D939C93969765966CAD7DADDC
:103A20008EAD9FAD65970E944962910149A95DAD38
:103A30000E94AA620E948F67F80167AB70AF81AFE6
:103A400092AF2B962CAD3DAD4EAD5FAD2B9769ADD2
:103A50007AAD8BAD9CAD0E94AA6269AB7AAB8BABA1
:103A60009CAB0DA51EA52FA538A9012B022B032B5E
:103A700059F58DE40BA51CA5809FF001819FF00DE9
:103A80001124EE50F84F86819781A085B185892B4E
:103A90008A2B8B2BC9F482859385A485B585892BC8
:103AA0008A2B8B2B89F420910C0430910D044091CA
:103AB0000E0450910F0469A97AA98BA99CA90E94B0
:103AC000AA620E940C6741C222962CAD3DAD4EAD5C
:103AD0005FAD2297232B242B252B49F060911404F2
:103AE00070911504809116049091170408C060919C
:103AF000100470911104809112049091130429A96B
:103B00003AA94BA95CA90E94AA620E940C670E9474
:103B10008F676B017C018091EE079091EF07A09178
:103B2000F007B091F1070DA91EA92FA938AD801794
:103B30009107A207B30708F4EFC02DA53EA54FA536
:103B400058A9232B242B252B61F12091CA033091F6
:103B5000CB034091CC035091CD032C153D054E0570
:103B60005F05F8F46DA97EA98FA998AD0E94FB6549
:103B70004B015C01A70196016DA57EA58FA598A9B3
:103B80000E94FB6586169706A806B90650F4C50183
:103B9000B4012DA53EA54FA558A90E940A6669014A
:103BA0007A018DE40BA51CA5809FF001819FF00D8B
:103BB0001124EE50F84F86809780A084B184811440
:103BC0009104A104B10441F12091CE033091CF03BF
:103BD0004091D0035091D1032C153D054E055F0552
:103BE000D8F46DA97EA98FA998AD0E94FB652B0121
:103BF0003C01A7019601C501B4010E94FB65461670
:103C000057066806790640F4C301B201A501940184
:103C10000E940A6669017A018DE40BA51CA5809FAC
:103C2000F001819FF00D1124EE50F84F82849384AF
:103C3000A484B58481149104A104B10441F12091BC
:103C4000D2033091D3034091D4035091D5032C1566
:103C50003D054E055F05D8F46DA97EA98FA998ADE5
:103C60000E94FB652B013C01A7019601C501B4012F
:103C70000E94FB65461657066806790640F4C301A4
:103C8000B201A50194010E940A6669017A018DE4DE
:103C90000BA51CA5809FF001819FF00D1124EE5013
:103CA000F84F86849784A088B18881149104A10478
:103CB000B10409F44EC12696EEADFFAD2697EE0F86
:103CC000FF1FEE0FFF1FEA52FC4F2081318142811E
:103CD00053812C153D054E055F0508F03AC16DA9CD
:103CE0007EA98FA998AD0E94FB652B013C01A7011D
:103CF0009601C501B4010E94FB6546165706680689
:103D0000790608F026C1C301B201A50194010E9401
:103D10000A6669017A011DC12DA53EA54FA558A9C6
:103D2000232B242B252BB9F16091CA037091CB036F
:103D30008091CC039091CD036C157D058E059F0578
:103D400050F50E94496229AD3AAD4BAD5CAD0E9481
:103D5000AA624B015C016DA57EA58FA598A90E9462
:103D60004B622B013C01C701B6010E944962A301CD
:103D700092010E94AA62A50194010E946C68181623
:103D800054F4A3019201C501B4010E9422670E946C
:103D90008F676B017C018DE40BA51CA5809FF00152
:103DA000819FF00D1124EE50F84F468057806084BB
:103DB00071844114510461047104A9F16091CE032E
:103DC0007091CF038091D0039091D1036C157D0544
:103DD0008E059F0540F50E94496229AD3AAD4BAD75
:103DE0005CAD0E94AA624B015C01C301B2010E945A
:103DF0004B622B013C01C701B6010E944962A3013D
:103E000092010E94AA62A50194010E946C68181692
:103E100054F4A3019201C501B4010E9422670E94DB
:103E20008F676B017C018DE40BA51CA5809FF001C1
:103E3000819FF00D1124EE50F84F42845384648426
:103E400075844114510461047104A9F16091D20395
:103E50007091D3038091D4039091D5036C157D05A7
:103E60008E059F0540F50E94496229AD3AAD4BADE4
:103E70005CAD0E94AA624B015C01C301B2010E94C9
:103E80004B622B013C01C701B6010E944962A301AC
:103E900092010E94AA62A50194010E946C68181602
:103EA00054F4A3019201C501B4010E9422670E944B
:103EB0008F676B017C018DE40BA51CA5809FF00131
:103EC000819FF00D1124EE50F84F86849784A088CE
:103ED000B18881149104A104B104D9F12696EEAD04
:103EE000FFAD2697EE0FFF1FEE0FFF1FEA52FC4FAC
:103EF00060817181828193816C157D058E059F059E
:103F000040F50E94496229AD3AAD4BAD5CAD0E94CF
:103F1000AA622B013C01C501B4010E944B624B0116
:103F20005C01C701B6010E944962A50194010E948B
:103F3000AA62A30192010E946C68181654F4A501AC
:103F40009401C301B2010E9422670E948F676B0136
:103F50007C018DE42BA53CA5829F8001839F100DE1
:103F600011240E50184FF801ED5BFF4FC082D18233
:103F7000E282F382C701B6010E9449626B017C01B3
:103F800029A93AA94BA95CA90E94226765966CAF42
:103F90007DAF8EAF9FAF6597D801D3966D937D931C
:103FA0008D939C93D69720E030E040E85BE4C70116
:103FB000B6010E94AA6220E034E244EF59E40E9474
:103FC00022670E948A67F801668F778F80A391A38A
:103FD000F3A1FDA7D8019496BC91BEAFF801F5A15D
:103FE000FDABD8019696BC91B9AF0AE114E0699691
:103FF0001FAF0EAF69972E0111E1410E511C4AE12E
:10400000242E44E0342E2D966EAC7FAC2D970DA55A
:1040100009AB1EAD1DAF2596FFAF25972396BFAF09
:10402000239710E0D3018D909D90AD90BD903D0100
:10403000E894B7F8F101C190D190E190F1901F019F
:10404000A7019601C501B4010E946C6818160CF016
:1040500046C01123D9F129A93DAD25964FAD25972D
:1040600023965FAD2397C501B4010E94AA624B015C
:104070005C012DA53EAD4DA959ADC701B6010E9409
:10408000AA626B017C019B01AC01C501B4010E94D5
:104090006C68181624F5A5019401C701B6010E94A9
:1040A00022679B01AC0169A97DAD25968FAD25974F
:1040B00023969FAD23970E94AA6269AB7DAF259698
:1040C0008FAF259723969FAF239709C0C9AADDAE6E
:1040D0002596EFAE25972396FFAE239711E0641443
:1040E000750409F09FCF27960FAD2797023008F48B
:1040F0004BC12090410D0091420D3090430D109125
:10410000440D27E137EB41ED58E3622D702F832DED
:10411000912F0E946C6818160CF036C121E066964B
:104120002FAF66972DA53EAD4DA959AD622D702FCD
:10413000832D912F0E946C681816A4F066961FAE0E
:1041400066972DA53EAD4DA959AD622D702F832DDB
:10415000912F0E94226761966CAF7DAF8EAF9FAFAB
:10416000619714C0222D302F432D512F6DA57EADA8
:104170008DA999AD0E94226761966CAF7DAF8EAF1D
:104180009FAF61972DA40EAD3DA819AD45E45DE04C
:1041900029965FAF4EAF2997412C512C30E8632E02
:1041A0003FE3732E27961FAE27972996AEADBFAD7E
:1041B0002997CD90DD90ED90FD902996BFAFAEAFE1
:1041C00029972D96EEADFFAD2D9781909190A190FE
:1041D000B1902D96FFAFEEAF2D976696FFAD669727
:1041E000FF2361F061962CAD3DAD4EAD5FAD6197A3
:1041F000C701B6010E94AA626B017C0127962FAD10
:104200002797222381F0A3019201C701B6010E94E2
:10421000AA626B017C01A3019201C501B4010E9455
:10422000AA624B015C01A5019401C701B6010E947D
:104230006C6820E030E0A9011816CCF4C501B40187
:104240000E946C6818164CF020E030E0A901C7010C
:10425000B6010E94456287FF05C0A5019401C70110
:10426000B60118C0B7FAB094B7F8B0941CC0C50135
:10427000B4010E94456287FD09C020E030E0A90139
:10428000C701B6010E946C6818164CF4A70196018C
:10429000C501B4010E9445666B017C010EC0F7FAAE
:1042A000F094F7F8F094A5019401C701B6010E94BB
:1042B0006C68181614F0750164016996AEADBFAD57
:1042C00069978D909D90AD90BD906996BFAFAEAF50
:1042D0006997A5019401C701B6010E946C68181680
:1042E00094F4A7019601C501B4010E9422679B01C5
:1042F000AC01C301B2010E94AA622B013C01B1E0F2
:104300002796BFAF27972996EEADFFAD2997E555C4
:10431000FD4009F04ACF27963FAD2797332361F040
:10432000A3019201622D702F832D912F0E94AA620A
:10433000262E072F382E192F24EA30E74DE75FE3AA
:10434000622D702F832D912F0E94AA626B017C0138
:104350009B01AC016091FA067091FB068091FC060E
:104360009091FD060E946C6818161CF5A701960135
:1043700069A97DAD25968FAD259723969FAD23978F
:104380000E946C681816ACF48DE40BA51CA5809FE8
:10439000F001819FF00D1124EE50F84F8081846070
:1043A000808329A80DAD25963FAC259723961FAD98
:1043B00023978DE42BA53CA5829FF001839FF00DF0
:1043C0001124EE50F84F822D902FA32DB12F83A7EB
:1043D00094A7A5A7B6A765966CAD7DAD8EAD9FAD34
:1043E000659790589B01AC010E9446666D962CAD76
:1043F0003DAD4EAD5FAD6D970E94AA629B01AC01D1
:104400006BE077ED83E29BE30E9445660E94B16812
:104410006B017C019B01AC01622D702F832D912FCC
:104420000E94456287FD04C02C2C0D2D3E2C1F2DB3
:104430008DE44BA55CA5849FF001859FF00D1124B0
:10444000EE50F84F822D902FA32DB12F87A390A768
:10445000A1A7B2A7B0809601A7016DA57EAD8DA9D9
:1044600099AD0E944562181614F481E001C083E002
:104470009DE4ABA5BCA59A9F90019B9F300D112494
:10448000F901EE50F84F7F01B82AB08280E1FE01B9
:104490003196A5E4BDE001900D928A95E1F78DA5D6
:1044A0009EADADA9B9AD8093410D9093420DA093FF
:1044B000430DB093440D89A99DAD2596AFAD2597C9
:1044C0002396BFAD23978093FA069093FB06A093A3
:1044D000FC06B093FD062DA53EAD4DA959ADBC011E
:1044E000CD010E9422676DA37EA38FA398A72DA55F
:1044F0003EAD4DA959AD622D702F832D912F0E9495
:10450000226769A37AA38BA39CA3AE014B5D5F4F87
:10451000BE016F5D7F4FC7010E948116A2960FAD4D
:10452000A2970093650DA6962CAD3DAD4EAD5FAD47
:10453000A6972093550D3093560D4093570D5093E9
:10454000580DAA968CAD9DADAEADBFADAA97809328
:10455000590D90935A0DA0935B0DB0935C0DAE96E0
:104560000CAD1DAD2EAD3FADAE9700935D0D10931C
:104570005E0D20935F0D3093600DA1962CAD3DAD87
:104580004EAD5FADA1972093610D3093620D4093C6
:10459000630D5093640D8091650D9091660D891B9C
:1045A0008F70843048F41091660DF12C00E080E0AB
:1045B00090E02DE4E22E9EC04090660D8091650D46
:1045C00083508F70F82EA12CB12C00E010E09DE4F8
:1045D000592EF41441F30115110521F0D8018C91E5
:1045E00082FDE1CF8FEF8F0D8F70F82E589EC001A6
:1045F0001124FC01EE50F84FFCA7EBA701151105A3
:1046000009F474C0A114B10409F470C0D8019B96D8
:104610007C909B979C96CC909C979D96DC909D97C8
:104620009E96EC909E97272D3C2D4D2D5E2D9796B6
:104630006D917D918D919C919A970E9445628823FE
:1046400009F454C0F801608061FC42C0D50197961E
:104650008D909D90AD90BC909A97A5019401672D87
:104660007C2D8D2D9E2D0E94456218168CF5A5017E
:104670009401C501B4010E94AA624B015C01F801DA
:1046800083A994A9A5A9B6A9BC01CD0190589B0105
:10469000AC010E944666D8019F962D913D914D91A7
:1046A0005C91D2970E94AA629B01AC01C501B40142
:1046B0000E9445660E94B1681B015C019B01AC0130
:1046C000672D7C2D8D2D9E2D0E94456287FF04C095
:1046D000272C3C2CAD2CBE2CC101D501F80187A3A1
:1046E00090A7A1A7B2A7862D8160808358010BA552
:1046F0001CA56FCF2091650D121791F0E19E9001DE
:104700001124A9014E50584F6A016F2D702F0E943D
:104710000B161F5F1F708F2D902FFC2C0D2DEACFD5
:104720006F2D702F0E940B16F090660D00E010E0C8
:104730008DE4E82E4F2D0F2C000C550B8091650D4C
:1047400090E04817590709F44DC0E49EC001E59E6A
:10475000900D1124DC01AE50B84F6D01011511050B
:10476000D9F1F801808180FD03C08C9180FF34C0B5
:10477000D80193968D909D90AD90BC909697E49EB5
:10478000F001E59EF00D1124EE50F84FA5019401C3
:1047900067A170A581A592A50E94226769A37AA34B
:1047A0008BA39CA3A5019401F80167A170A581A525
:1047B00092A50E9422676DA37EA38FA398A7AE0146
:1047C0004F5D5F4FBE016B5D7F4FC8010E94811638
:1047D000D8018C918E7F8C9381E08F0D8F70F82E95
:1047E0008601A8CF0115110569F1F801C3A0D4A075
:1047F000E5A0F6A0A70196016DEC7CEC8CE49DE3AE
:104800000E94226769A37AA38BA39CA3A7019601A8
:10481000D80197966D917D918D919C919A970E9468
:1048200022676DA37EA38FA398A7AE014F5D5F4F54
:10483000BE016B5D7F4FC8010E948116F801808127
:104840008E7F808380916F00826080936F0008C0AC
:1048500029AC39A80DAD23961FAD23970C94DF1A10
:10486000C359DF4F0FB6F894DEBF0FBECDBFDF9147
:10487000CF911F910F91FF90EF90DF90CF90BF905D
:10488000AF909F908F907F906F905F904F903F90F0
:104890002F900895CF93DF93EDE1FAE08491EF013B
:1048A0002196882321F00E94890EFE01F7CFE5E1D1
:1048B000FAE08491EF012196882321F00E94890E6D
:1048C000FE01F7CF1E9903C0CFE6D3E002C0C4E7D4
:1048D000D3E08991882319F00E94890EFACF8AE0EB
:1048E0000E94890EEDE0FAE08491EF012196882381
:1048F00021F00E94890EFE01F7CF1D9903C0CFE67B
:10490000D3E002C0C4E7D3E08991882319F00E9464
:10491000890EFACF8AE00E94890EE5E0FAE08491E0
:10492000EF012196882321F00E94890EFE01F7CF26
:104930001C9B03C0CFE6D3E002C0C4E7D3E089915B
:10494000882319F00E94890EFACF8AE00E94890E0E
:10495000EDEFF9E08491EF012196882321F00E9488
:10496000890EFE01F7CF379B03C0CFE6D3E002C02C
:10497000C4E7D3E08991882319F00E94890EFACF09
:104980008AE0DF91CF910C94890EAF92BF92CF92C3
:10499000DF92EF92FF920F931F93CF93DF93CDB7E8
:1049A000DEB7E0970FB6F894DEBF0FBECDBF80E153
:1049B000EEE9F2E0DE01919601900D928A95E1F721
:1049C00080E1EEEAF2E0DE01519601900D928A95C7
:1049D000E1F780E1EEEBF2E0DE01119601900D923D
:1049E0008A95E1F7DE0191966AED73E0AE014F5EC4
:1049F0005F4F2CEF33E0CE0101965C018CEE93E02B
:104A00008E010F5C1F4FCD90DD90ED90FD90FB016E
:104A1000C192D192E192F192BF01FA01C190D1907D
:104A2000E190F190AF01F901C192D192E192F1923E
:104A30009F01F501C190D190E190F1905F01FC01DF
:104A4000C192D192E192F192CF01A017B107D9F6AC
:104A500080E090E8ABE3B5E48093140490931504F0
:104A6000A0931604B093170480930C0490930D0444
:104A7000A0930E04B0930F0480931004909311043C
:104A8000A0931204B09313041092320410923304D2
:104A9000109234041092350480E29EE4A0E0B0E06D
:104AA00080932A0490932B04A0932C04B0932D049C
:104AB00010922E0410922F041092300410923104A0
:104AC00080E090E0A0EAB1E480931A0490931B0484
:104AD000A0931C04B0931D0480931E0490931F04A4
:104AE000A0932004B09321048DEC9CECACECBEE3CD
:104AF0008093220490932304A0932404B09325046C
:104B000080E090E0A0EAB0E480932604909327042C
:104B1000A0932804B09329041092B2041092B30415
:104B20001092B4041092B5041092AE041092AF0427
:104B30001092B0041092B1041092AA041092AB0427
:104B40001092AC041092AD048AE999E9A1EBB1E4AA
:104B50008093200290932102A0932202B09323021B
:104B600088EC9EE6A9E5BEE380931C0290931D02AB
:104B7000A0931E02B0931F0280E695EFA0E1B4E47B
:104B80008093180290931902A0931A02B0931B020B
:104B90001092EB0380E090E0A0E4B0E480930F0279
:104BA00090931002A0931102B093120210920E0281
:104BB0001092EA030E946E3B0E949B3C0E9432339B
:104BC00080E090E00E94330E81E090E00E94330E7E
:104BD00082E090E00E94330EE9E2F7E184918F01D8
:104BE0000F5F1F4F882321F00E94890EF801F6CF36
:104BF000EAEDF9E084918F010F5F1F4F882321F0C8
:104C00000E94890EF801F6CFE0960FB6F894DEBF49
:104C10000FBECDBFDF91CF911F910F91FF90EF900D
:104C2000DF90CF90BF90AF9008954F925F926F92B8
:104C30007F928F929F92AF92BF92CF92DF92EF922C
:104C4000FF920F931F93CF93DF9300D000D0CDB787
:104C5000DEB76C01FC01E952F64F14917C01EE0CB9
:104C6000FF1CEE0CFF1CC7018553964F0E942D0EB2
:104C70004B015C01612F110F770B880B990B0E9480
:104C80004B622B013C0120E030E040EC5FE3C501CA
:104C9000B4010E94AA62A30192010E94AA62AB0120
:104CA000BC0100E010E09801C6010E94CA0DC701D6
:104CB0008154964F0E942D0E9B01AC01C301B2019D
:104CC0000E94AA624B015C0120E030E0A9010E9431
:104CD0004562882309F45AC000E010E09801B5014C
:104CE000A4017058C6010E94CA0D86E0EEECF2E005
:104CF000DE01119601900D928A95E1F7F601EE0F13
:104D0000FF1F81E090E08C0F9D1FE80FF91F80814D
:104D1000918118161906D4F0E9E2F7E184918F0128
:104D20000F5F1F4F882321F00E94890EF801F6CFF4
:104D3000EDE9F9E084918F010F5F1F4F882321F087
:104D40000E94890EF801F6CF8AE090E0BC01990F2D
:104D5000880B990B0E944B629B01AC01F701EC524E
:104D6000FD4F60817181828193810E9422672B01B6
:104D70003C01A5019401C501B4010E944666AB0146
:104D8000BC0193018201C6010E94CA0DF601EE52D8
:104D9000FB4F81E08083F601ED53FC4F8083F701E8
:104DA000E256FB4F5F011082118212821382C6010C
:104DB0000E94330EC70183579A4F0E942D0E870120
:104DC0000E531B4FF701E655FB4F20813181428185
:104DD00053810E944666F5012081318142815381D1
:104DE0000E944666F80160837183828393830E94E8
:104DF000730D97012A563C4FF80180819181A28161
:104E0000B381F90180839183A283B38326960FB681
:104E1000F894DEBF0FBECDBFDF91CF911F910F91F0
:104E2000FF90EF90DF90CF90BF90AF909F908F90CA
:104E30007F906F905F904F900895CF92DF92EF92A6
:104E4000FF920F931F93CF93DF937C01262F972F11
:104E50008A0180915604882391F0C62FD72F6E01C6
:104E6000C40ED51ECC15DD0571F06991D701ED9109
:104E7000FC910190F081E02DC7011995F3CF642FCB
:104E8000822F0E94BC40C801DF91CF911F910F91EA
:104E9000FF90EF90DF90CF900895CF93DF931F9214
:104EA000CDB7DEB76983209156042223D1F020913B
:104EB0006A0D203240F021E030E0FC013383228390
:104EC00080E090E015C080916B0DE82FF0E0EA5C87
:104ED000FB4F998190838F5F80936B0D80936A0D58
:104EE00005C061E0CE0101960E94BC4081E090E0E7
:104EF0000F90DF91CF910895CF92DF92EF92FF92C2
:104F0000C0904D07D0904E07E0904F07F0905007AB
:104F10008091BB039091BC03BC01990F880B990B46
:104F20000E944B6220E030E040EC50E40E94456675
:104F30009B01AC01C701B6010E94456287FF1FC0FB
:104F400020E030E040E050E4C701B6010E94466630
:104F50000E948A6770934C0760934B070E94353F0D
:104F6000DC01CB01805A9541AF4FBF4F8093510771
:104F700090935207A0935307B093540708C0109220
:104F80005107109252071092530710925407FF9046
:104F9000EF90DF90CF90089510923C0D10923B0D52
:104FA0000E94F0401092BC031092BB03A5DF0E9448
:104FB000DE4110923C0D10923B0D0E94F040109289
:104FC0009C049FB7F894E2E0F1E080818F7B8083BE
:104FD0009FBF0895CF92DF92EF92FF920F931F939E
:104FE000CF93DF931F921F92CDB7DEB77C018A016A
:104FF00080913002882309F443C0EAEAF5E0849105
:105000006F019FEFC91AD90A882341F069837A8317
:105010000E94890EF60169817A81F1CFFB018491AA
:105020006F019FEFC91AD90A882321F00E94890EC7
:10503000F601F5CFE0E6FAE084916F019FEFC91A1F
:10504000D90A882321F00E94890EF601F5CFF7FCDA
:105050000AC0B701FF0C880B990B0E94370F8AE03A
:105060000E94890E0DC0EBE5FAE084917F019FEF6D
:10507000E91AF90A882321F00E94890EF701F5CF79
:1050800080910A07811108C01092300281E080935C
:105090000A07C8010E94BB300F900F90DF91CF919B
:1050A0001F910F91FF90EF90DF90CF9075CF1F92DF
:1050B0000F920FB60F9211240BB60F922F933F93BE
:1050C0004F935F936F937F938F939F93AF93BF9310
:1050D000CF93DF93EF93FF9380916E008B7F80934C
:1050E0006E00789480913A02811116C080919C04E0
:1050F000809325079FB7882329F0F89480910201B7
:10510000806404C0F894809102018F7B8093020137
:105110009FBF1092240775989091250780913A02BD
:10512000981740F49FB7F894809102018F7B809389
:1051300002019FBF9091240780913A02981708F4CA
:10514000759880913A028F5F8F7780933A02E09151
:105150003802F0913902ED30F10508F05BC0882784
:10516000EE58FF4F8F4F0C943A6910927B0080E409
:1051700080937C0080917A00806480937A0081E043
:1051800090E01AC020917800309179008091140746
:1051900090911507A0911607B0911707820F931FE2
:1051A000A11DB11D8093140790931507A0931607B6
:1051B000B093170782E090E0909339028093380211
:1051C00029C083E090E0F8CF84E090E0F5CF85E05F
:1051D00090E0F2CF86E090E0EFCF87E090E0ECCF78
:1051E00088E090E0E9CF89E090E0E6CF8AE090E0C7
:1051F000E3CF8BE090E0E0CF1092390210923802BA
:10520000809113078F5F8093130704C010923902B7
:105210001092380280911307803108F473C0109205
:10522000130780919B04811113C080911407909102
:10523000150790930E0780930D0780910F079091AB
:10524000100790930C0780930B0781E080939B04D9
:1052500080E1E4E1F7E0DF011D928A95E9F7109221
:105260000F07109210071092110710921207C091A9
:105270000D07D0910E07D195C195D10980910507F1
:10528000909106079195819591098C179D07C4F41B
:1052900060913B0D70913C0D072E000C880B990B13
:1052A0000E944B6220E030E0A9010E946C68181651
:1052B0003CF445EA5AE062EB7AE080E090E08ADE76
:1052C0008091360290913702919581959109C81786
:1052D000D907C4F460913B0D70913C0D072E000C72
:1052E000880B990B0E944B6220E030E0A9010E94DC
:1052F0006C6818163CF444EC5AE061ED7AE080E00A
:1053000090E068DE80916E00846080936E00FF9173
:10531000EF91DF91CF91BF91AF919F918F917F914D
:105320006F915F914F913F912F910F900BBE0F9016
:105330000FBE0F901F90189580910D0790910E074A
:105340000E943F4160933D0D70933E0D80933F0D51
:105350009093400D10924D0710924E0710924F07F8
:1053600010925007A8958FB7F89410929B048FBFA6
:1053700008952F923F924F925F926F927F928F92F9
:105380009F92AF92BF92CF92DF92EF92FF920F93D4
:105390001F93CF93DF93CDB7DEB72C970FB6F8945A
:1053A000DEBF0FBECDBFC8DF0E94353F69837A8361
:1053B0008B839C8360913B0D70913C0D072E000CFC
:1053C000880B990B0E944B626B017C0180903D0D14
:1053D00090903E0DA0903F0DB090400D9B01AC0110
:1053E00060913F077091400780914107909142077B
:1053F0000E9445628823C9F0C0923F07D0924007BF
:10540000E0924107F092420701E010E020E030E036
:10541000A901C701B6010E946C68181614F000E0DB
:1054200010E010935A070093590780915907909103
:105430005A0782309105D9F08330910509F456C09E
:10544000019709F05AC020913F07309140074091E1
:10545000410750914207C501B4010E94456287FD92
:105460004CC082E090E090935A078093590720E067
:1054700030E040E850E460913F0770914007809130
:105480004107909142070E9445669B01AC01C5010E
:10549000B4010E946C6887FD11C00E94353FDC0199
:1054A000CB01805C9346AF4FBF4F809355079093DD
:1054B0005607A0935707B09358071FC00E94353F67
:1054C000C0905507D0905607E0905707F0905807C6
:1054D000DC01CB018C199D09AE09BF09B7FD0DC0D8
:1054E00083E090E090935A078093590743EE5AE087
:1054F00063EF7AE080E090E06DDD60903B0D7090AE
:105500003C0D20903D0D30903E0D40903F0D509051
:10551000400DB301072C000C880B990B0E944B62C5
:10552000A20191010E9445664B015C0160933B071B
:1055300070933C0780933D0790933E0720ED3CEC31
:105540004CE45DE3609118027091190280911A0297
:1055500090911B020E94AA626B017C012091370787
:10556000309138074091390750913A07C201B10193
:105570000E9445669B01AC01C701B6010E94AA6268
:105580006B017C0123E333E343E75FE3609133077F
:105590007091340780913507909136070E94AA6276
:1055A0009B01AC01C701B6010E94466669877A87F4
:1055B0008B879C87609333077093340780933507FC
:1055C0009093360720923707309238074092390778
:1055D00050923A0720E030E040E251E4C501B401C6
:1055E0000E946C68181624F481E0809332078DC005
:1055F00020E030E040E251ECC501B4010E94456278
:1056000087FD02C0672821F481E080933207A3C0A0
:1056100080913207882351F010922E0710922F07A5
:105620001092300710923107109232072091200219
:10563000309121024091220250912302C501B40110
:105640000E94AA626B017C0160932A0770932B076A
:1056500080932C0790932D0720912E0730912F07D0
:105660004091300750913107C501B4010E94466650
:105670006D837E838F83988760932E0770932F07A7
:10568000809330079093310720911C0230911D02C6
:1056900040911E0250911F020E94AA629B01AC0120
:1056A0006093260770932707809328079093290714
:1056B000C701B6010E94466629853A854B855C85FF
:1056C0000E9445666B017C0120E030E04FE753E427
:1056D0000E946C6820E030E0A9011816ECF4C501C6
:1056E000B4010E946C68181684F4A50194016D81C0
:1056F0007E818F8198850E94456660932E07709306
:105700002F078093300790933107C12CD12C9FE74E
:10571000E92E93E4F92E22C0C701B6010E9445622A
:1057200087FF1CC020E030E0A901C501B4010E9440
:10573000456287FF10C0A50194016D817E818F8134
:1057400098850E94456660932E0770932F0780937B
:10575000300790933107C12CD12C76016091080756
:1057600070910907072E000C880B990B0E944B6261
:105770009B01AC01C201B1010E946C681816CCF407
:1057800060913B0270913C02072E000C880B990B34
:105790000E944B629B01AC01C201B1010E944562B3
:1057A00087FF07C0C701B6010E948A677595679594
:1057B00001C060E060939C048091350D9091360D9E
:1057C000A091370DB091380D0097A105B10531F1C9
:1057D00029813A814B815C81281B390B4A0B5B0B79
:1057E00057FD1CC06091390D70913A0D072E000CC9
:1057F000880B990B0E944B629B01AC01C201B10165
:105800000E94456287FF08C041E25BE060E37BE005
:1058100080E090E0DFDB02C00E94F0408091510701
:1058200090915207A0915307B09154070097A1059A
:10583000B10559F129813A814B815C81281B390BD3
:105840004A0B5B0B57FD21C060914B0770914C07D1
:10585000072E000C880B990B0E944B629B01AC0138
:1058600060914D0770914E0780914F0790915007BE
:105870000E94456287FF08C043E05BE062E17BE095
:105880008FEF9FEFA7DB01C037DB80914707909137
:105890004807A0914907B0914A0729813A814B8175
:1058A0005C81281B390B4A0B5B0B57FD10C08981AB
:1058B0009A81AB81BC8188579C4EAF4FBF4F80937C
:1058C000470790934807A0934907B0934A072C963F
:1058D0000FB6F894DEBF0FBECDBFDF91CF911F9101
:1058E0000F91FF90EF90DF90CF90BF90AF909F907F
:1058F0008F907F906F905F904F903F902F90089582
:10590000CF93DF93EDE4FAE08491EF0121968823B1
:1059100021F00E94890EFE01F7CFE9E4FAE08491BC
:10592000EF012196882321F00E94890EFE01F7CF16
:1059300062B36695617070E080E090E00E94370F7E
:1059400062B3617070E080E090E00E94370F8AE0FF
:105950000E94890EE5E4FAE08491EF012196882304
:1059600021F00E94890EFE01F7CF60910601862F7B
:10597000660F990BAA0BBB0BBC01CD01662797FDE7
:1059800063957727882799270E94370F62B362FBB8
:10599000662760F970E080E090E00E94370F8AE0AF
:1059A0000E94890EE1E4FAE08491EF0121968823B8
:1059B00021F00E94890EFE01F7CF6091060166FB7F
:1059C000662760F970E080E090E00E94370F6091F8
:1059D000060165FB662760F970E080E090E00E94B8
:1059E000370F8AE00E94890EECE3FAE08491EF0120
:1059F0002196882321F00E94890EFE01F7CF609145
:105A0000060163FB662760F970E080E090E00E9489
:105A1000370F609106016295617070E080E090E060
:105A20000E94370F8AE00E94890EE7E3FAE0849132
:105A3000EF012196882321F00E94890EFE01F7CF05
:105A4000609106016695617070E080E090E00E94D0
:105A5000370F6091060162FB662760F970E080E015
:105A600090E00E94370F8AE0DF91CF910C94890E6D
:105A7000CF93C42F67FD2BC08230B9F028F4882360
:105A800041F0813061F023C08330A9F08430C9F047
:105A90001EC088E20E94CB3DC7FF28C038C085E405
:105AA0000E94CB3DC7FF25C032C084E40E94CB3D9D
:105AB000C7FF22C02CC081E40E94CB3DC7FF1FC09E
:105AC00026C08FE30E94CB3DC7FF1CC020C0C7FD8E
:105AD0001EC0823089F028F4882341F0813049F0DB
